{
  "_format": "hh-sol-artifact-1",
  "contractName": "MyToken",
  "sourceName": "contracts/contract.sol",
  "abi": [
    {
      "inputs": [],
      "stateMutability": "nonpayable",
      "type": "constructor"
    },
    {
      "anonymous": false,
      "inputs": [
        {
          "indexed": false,
          "internalType": "address",
          "name": "",
          "type": "address"
        },
        {
          "indexed": false,
          "internalType": "uint256",
          "name": "",
          "type": "uint256"
        }
      ],
      "name": "GetBalance",
      "type": "event"
    },
    {
      "anonymous": false,
      "inputs": [
        {
          "indexed": false,
          "internalType": "uint256",
          "name": "",
          "type": "uint256"
        }
      ],
      "name": "Print",
      "type": "event"
    },
    {
      "anonymous": false,
      "inputs": [
        {
          "indexed": false,
          "internalType": "address",
          "name": "",
          "type": "address"
        },
        {
          "indexed": false,
          "internalType": "uint256",
          "name": "",
          "type": "uint256"
        }
      ],
      "name": "Transfer",
      "type": "event"
    },
    {
      "inputs": [
        {
          "internalType": "address",
          "name": "",
          "type": "address"
        }
      ],
      "name": "balanceOf",
      "outputs": [
        {
          "internalType": "uint256",
          "name": "",
          "type": "uint256"
        }
      ],
      "stateMutability": "view",
      "type": "function"
    },
    {
      "inputs": [
        {
          "internalType": "address",
          "name": "account",
          "type": "address"
        }
      ],
      "name": "getBalance",
      "outputs": [
        {
          "internalType": "uint256",
          "name": "",
          "type": "uint256"
        }
      ],
      "stateMutability": "nonpayable",
      "type": "function"
    },
    {
      "inputs": [
        {
          "internalType": "uint256",
          "name": "a",
          "type": "uint256"
        },
        {
          "internalType": "uint256",
          "name": "b",
          "type": "uint256"
        }
      ],
      "name": "multiply",
      "outputs": [
        {
          "internalType": "uint256",
          "name": "",
          "type": "uint256"
        }
      ],
      "stateMutability": "nonpayable",
      "type": "function"
    },
    {
      "inputs": [
        {
          "internalType": "address",
          "name": "_to",
          "type": "address"
        },
        {
          "internalType": "uint256",
          "name": "_value",
          "type": "uint256"
        }
      ],
      "name": "transfer",
      "outputs": [],
      "stateMutability": "nonpayable",
      "type": "function"
    }
  ],
  "bytecode": "0x608060405234801561001057600080fd5b507332df1c41804a53ffe08b162fa02a3c2bae829258600160006101000a81548173ffffffffffffffffffffffffffffffffffffffff021916908373ffffffffffffffffffffffffffffffffffffffff160217905550670de0b6b3a7640000600080600160009054906101000a900473ffffffffffffffffffffffffffffffffffffffff1673ffffffffffffffffffffffffffffffffffffffff1673ffffffffffffffffffffffffffffffffffffffff168152602001908152602001600020819055506040518060400160405280600481526020017f6e616d65000000000000000000000000000000000000000000000000000000008152506002908051906020019061011e92919061012c565b506001600381905550610230565b828054610138906101cf565b90600052602060002090601f01602090048101928261015a57600085556101a1565b82601f1061017357805160ff19168380011785556101a1565b828001600101855582156101a1579182015b828111156101a0578251825591602001919060010190610185565b5b5090506101ae91906101b2565b5090565b5b808211156101cb5760008160009055506001016101b3565b5090565b600060028204905060018216806101e757607f821691505b602082108114156101fb576101fa610201565b5b50919050565b7f4e487b7100000000000000000000000000000000000000000000000000000000600052602260045260246000fd5b6106998061023f6000396000f3fe608060405234801561001057600080fd5b506004361061004c5760003560e01c8063165c4a161461005157806370a0823114610081578063a9059cbb146100b1578063f8b2cb4f146100cd575b600080fd5b61006b60048036038101906100669190610448565b6100fd565b60405161007891906104cb565b60405180910390f35b61009b600480360381019061009691906103e3565b610155565b6040516100a891906104cb565b60405180910390f35b6100cb60048036038101906100c6919061040c565b61016d565b005b6100e760048036038101906100e291906103e3565b610333565b6040516100f491906104cb565b60405180910390f35b60007f24abdb5865df5079dcc5ac590ff6f01d5c16edbc5fab4e195d9febd1114503da828461012c919061053c565b60405161013991906104cb565b60405180910390a1818361014d919061053c565b905092915050565b60006020528060005260406000206000915090505481565b806000803373ffffffffffffffffffffffffffffffffffffffff1673ffffffffffffffffffffffffffffffffffffffff1681526020019081526020016000205410156101b857600080fd5b6000808373ffffffffffffffffffffffffffffffffffffffff1673ffffffffffffffffffffffffffffffffffffffff16815260200190815260200160002054816000808573ffffffffffffffffffffffffffffffffffffffff1673ffffffffffffffffffffffffffffffffffffffff1681526020019081526020016000205461024191906104e6565b101561024c57600080fd5b806000803373ffffffffffffffffffffffffffffffffffffffff1673ffffffffffffffffffffffffffffffffffffffff168152602001908152602001600020600082825461029a9190610596565b92505081905550806000808473ffffffffffffffffffffffffffffffffffffffff1673ffffffffffffffffffffffffffffffffffffffff16815260200190815260200160002060008282546102ef91906104e6565b925050819055507f69ca02dd4edd7bf0a4abb9ed3b7af3f14778db5d61921c7dc7cd545266326de282826040516103279291906104a2565b60405180910390a15050565b6000806000808473ffffffffffffffffffffffffffffffffffffffff1673ffffffffffffffffffffffffffffffffffffffff1681526020019081526020016000205490507f2ee5108edf1b0cacb02ca5dd70ace75f5f6acba366cfe64a64b126815c5473a983826040516103a89291906104a2565b60405180910390a180915050919050565b6000813590506103c881610635565b92915050565b6000813590506103dd8161064c565b92915050565b6000602082840312156103f557600080fd5b6000610403848285016103b9565b91505092915050565b6000806040838503121561041f57600080fd5b600061042d858286016103b9565b925050602061043e858286016103ce565b9150509250929050565b6000806040838503121561045b57600080fd5b6000610469858286016103ce565b925050602061047a858286016103ce565b9150509250929050565b61048d816105ca565b82525050565b61049c816105fc565b82525050565b60006040820190506104b76000830185610484565b6104c46020830184610493565b9392505050565b60006020820190506104e06000830184610493565b92915050565b60006104f1826105fc565b91506104fc836105fc565b9250827fffffffffffffffffffffffffffffffffffffffffffffffffffffffffffffffff0382111561053157610530610606565b5b828201905092915050565b6000610547826105fc565b9150610552836105fc565b9250817fffffffffffffffffffffffffffffffffffffffffffffffffffffffffffffffff048311821515161561058b5761058a610606565b5b828202905092915050565b60006105a1826105fc565b91506105ac836105fc565b9250828210156105bf576105be610606565b5b828203905092915050565b60006105d5826105dc565b9050919050565b600073ffffffffffffffffffffffffffffffffffffffff82169050919050565b6000819050919050565b7f4e487b7100000000000000000000000000000000000000000000000000000000600052601160045260246000fd5b61063e816105ca565b811461064957600080fd5b50565b610655816105fc565b811461066057600080fd5b5056fea2646970667358221220506a4cc1eabbc8dd0b9cf0843a1da88044608efa6bfe5474d38938eb55a62dfb64736f6c63430008040033",
  "linkReferences": {},
  "deployedLinkReferences": {}
}